:020000040800F2
:1000000000000220C1100008D5050008D70500082F
:10001000D9050008DB050008DD0500080000000028
:10002000000000000000000000000000DF050008E4
:10003000E105000800000000E3050008E5050008F0
:100040001111000811110008111100081111000808
:1000500011110008111100081111000811110008F8
:1000600011110008111100081111000811110008E8
:1000700011110008111100081111000811110008D8
:1000800011110008111100081111000800000000F2
:100090000000000000000000000000001111000836
:1000A00011110008111100081111000811110008A8
:1000B0001111000811110008111100081111000898
:1000C0001111000811110008111100081111000888
:1000D00011110008111100081111000800000000A2
:1000E0001111000811110008111100080000000092
:1000F00000000000000000000000000011110008D6
:100100000000000011110008111100081111000871
:1001100000000000000000000000000000000000DF
:100120001111000811110008111100081111000827
:100130001111000800000000000000000000000095
:100140000000000000000000000000001111000885
:1001500011110008111100081111000811110008F7
:10016000111100081111000800000000000000003B
:10017000000000000000000000000000000000007F
:100180000000000011110008000000000000000045
:08019000111100081111000813
:1001980053B94AB9002908BF00281CBF4FF0FF31E6
:1001A8004FF0FF3000F00CB8ADF1080C6DE904CE4B
:1001B80000F0D8FFDDF804E0DDE9022304B0704761
:1001C800704700BF10B5054C237833B9044B13B101
:1001D8000448AFF300800123237010BD0C000020F9
:1001E800000000002814000808B5034B1BB10349A0
:1001F8000348AFF3008008BD000000001000002095
:100208002814000870B588B0002403940494059459
:100218000694079400941C4B1A6B42F004021A636C
:100228001A6B02F004020092009A01941A6B42F0D1
:1002380080021A631A6B02F080020192019A0294FA
:100248001A6B42F001021A631B6B03F0010302935D
:10025800029B0E4E01224FF40051304600F0A3FBE2
:100268004FF400530393012504950594069403A9BC
:10027800304600F0ADFA03950494059503A90448A7
:1002880000F0A6FA08B070BD00380240000802402D
:100298000000024008B518B1012816D0002008BD9A
:1002A800012902D049B10020F9E701224FF4005199
:1002B8000F4800F078FB0120F1E700224FF40051CD
:1002C8000B4800F070FB0120E9E7012902D041B199
:1002D8000020E4E701221146064800F064FB0120F3
:1002E800DDE700220121034800F05DFB0120D6E78D
:1002F800000802400000024008B518B1012811D0DA
:10030800002008BD4FF400510D4800F045FB0128BE
:1003180001D10120F5E74FF40051094800F03CFBFA
:100328000020EEE70121074800F036FB012801D143
:100338000120E6E70121034800F02EFB0020E0E75A
:10034800000802400000024038B54A4B1B78042BD5
:1003580000F28C80DFE803F003203E4D840001208A
:10036800FFF7CAFF044640B1424B03221A7000F05F
:10037800BFF9414B1860002476E00120FFF7BCFF6D
:100388000546002870D100F0B3F93B4B1860394B93
:1003980001221A702C4667E000F0AAF9364B1B6858
:1003A800C01A132801D800245EE00120FFF7A4FF3B
:1003B800044630B9314B01221A702E4B02221A70B2
:1003C80052E02C4B03221A7000F092F92A4B186065
:1003D800002449E00120FFF78FFF0446002843D09E
:1003E80000F086F9244B1860224B03221A7000246F
:1003F8003AE000F07DF9204B1B68C01A132837D962
:100408001E4B1C78BCB90120FFF776FF054618B1D2
:10041800184B00221A7027E00120FFF76DFF0446F1
:1004280008B12C4620E000F063F9134B1860114B1B
:1004380001221A7018E0114B00221A700120FFF7F0
:100448005BFF044620B10B4B04221A7000240BE01A
:1004580000F04EF9084B1860064B01221A7003E0B1
:10046800044B00221A700124204638BD0024FBE703
:100478000024F9E7300000202C000020280000208C
:10048800F8B505460024264605E02846FFF734FF60
:1004980088B10134E4B2012C13D8AC42F9D1284612
:1004A800FFF72AFF07460028EFD000212846FFF76C
:1004B800F1FE3E46EDE701212846FFF7EBFE012657
:1004C800E7E73046F8BD72B6FEE7000000B595B024
:1004D8003022002108A800F018FE0023039304939B
:1004E80005930693079301931F4A116C41F08051BD
:1004F8001164126C02F080520192019A02931B4B14
:100508001A6842F440421A601B6803F4404302939D
:10051800029B012308934FF48033099302230E931F
:100528004FF480020F920C221092602211921293C3
:100538000423139308A800F03DFA88B90F23039306
:1005480002230493002305934FF4805206920793E5
:10055800032103A800F07EFC20B915B05DF804FB68
:10056800FFF7B1FFFFF7AFFF00380240007000400F
:1005780008B500F097F8FFF7A9FFFFF743FE00F072
:100588003BF8FFF7E1FE0028FBD00020FFF778FFDB
:10059800F7E7000082B0002100910B4B5A6C42F43F
:1005A80080425A645A6C02F480420092009A019187
:1005B8001A6C42F080521A641B6C03F0805301934A
:1005C800019B02B0704700BF00380240FEE7FEE71B
:1005D800FEE7FEE7FEE770477047704708B500F092
:1005E8007BF808BD034AD2F8883043F47003C2F898
:1005F8008830704700ED00E008B50948094B0360F2
:100608000023436083604FF6FF72C2600361836119
:1006180000F026FD00B908BDFFF755FFFBE700BF56
:1006280034000020004801400268094B9A4200D07B
:10063800704782B000230193064B5A6C42F4802223
:100648005A645B6C03F480230193019B02B07047EA
:10065800004801400038024010B504460E4B1A7895
:100668004FF47A73B3FBF2F30C4A1068B0FBF3F063
:1006780000F09AF868B90F2C01D901200AE000228D
:1006880021464FF0FF3000F07FF8054B1C6000203A
:1006980000E0012010BD00BF040000200000002081
:1006A8000800002008B50B4B1A6842F400721A6063
:1006B8001A6842F480621A601A6842F480721A60FA
:1006C800032000F04FF80F20FFF7C6FFFFF762FF87
:1006D800002008BD003C0240034A1168034B1B7808
:1006E8000B441360704700BF7C000020040000200A
:1006F800014B1868704700BF7C000020002808DB09
:100708000901C9B200F1604000F5614080F80013AA
:10071800704700F00F000901C9B2014B1954704726
:1007280014ED00E000B500F00700C0F1070CBCF1C3
:10073800040F28BF4FF0040C031D062B0FD9C31E4E
:100748004FF0FF3E0EFA0CF021EA000199400EFA34
:1007580003FE22EA0E0241EA02005DF804FB0023D0
:10076800EEE70000074AD36823F4E0631B041B0C80
:10077800000200F4E060034343F0BF6343F4003336
:10078800D360704700ED00E010B50446054BD8680B
:10079800C0F30220FFF7C6FF01462046FFF7AEFF71
:1007A80010BD00BF00ED00E00138B0F1807F0BD232
:1007B8004FF0E0235861054AF02182F82310002009
:1007C800986107221A6170470120704700ED00E028
:1007D80000230F2B00F2D78070B582B065E08568E2
:1007E8004FEA430E032404FA0EF425EA0405CC6804
:1007F80004FA0EF42C438460446824EA02044A682C
:10080800C2F300129A40224342605CE0DC080834DC
:1008180050F8242003F00705AD004FF00F0E0EFA34
:1008280005FE22EA0E0E0A69AA4042EA0E0240F8C4
:1008380024205CE0042200E0002202FA0EF22A439F
:100848000234514D45F82420504A94686FEA0C024E
:1008580024EA0C054E6816F4801F01D04CEA040502
:100868004A4CA560E46802EA04054E6816F4001FC5
:1008780001D04CEA0405454CE560646802EA0405C9
:100888004E6816F4003F01D04CEA04053F4C656001
:10089800246822404D6815F4803F01D04CEA0402D8
:1008A8003A4C226001330F2B6BD801229A400C6816
:1008B80004EA020C32EA0404F4D14C6804F003049C
:1008C800013C012C8BD94A6802F00302032A09D0A3
:1008D800C4685D000322AA4024EA02048A68AA4088
:1008E8002243C2604A6802F00302022A8ED00468DA
:1008F8004FEA430E032202FA0EF224EA02044A687F
:1009080002F0030202FA0EF2224302604A6812F46D
:10091800403FC7D0002201921D4A546C44F48044E1
:100928005464526C02F480420192019A9C08A51CFE
:10093800154A52F8255003F0030E4FEA8E0E0F2287
:1009480002FA0EF225EA0205124A90423FF474AF09
:1009580002F5806290420ED002F5806290420CD07F
:1009680002F5806290420AD002F5806290423FF41C
:1009780061AF072261E701225FE702225DE70322F8
:100988005BE702B070BD704700380140003C014091
:1009980000380240000002400369194201D00120DA
:1009A8007047002070470AB181617047090481616E
:1009B80070470000002800F0E08170B582B004465E
:1009C800036813F0010F3BD09F4B9B6803F00C03A7
:1009D800042B2CD09C4B9B6803F00C03082B21D0D4
:1009E8006368B3F5803F4FD0B3F5A02F52D0964B34
:1009F8001A6822F480321A601A6822F480221A6077
:100A08006368002B50D0FFF773FE05468E4B1B68BA
:100A180013F4003F14D1FFF76BFE401B6428F5D98F
:100A28000320B1E1884B5B6813F4800FD8D0864B64
:100A38001B6813F4003F03D06368002B00F09F810C
:100A4800236813F0020F54D07F4B9B6813F00C0FF0
:100A58003ED07D4B9B6803F00C03082B33D0E36832
:100A6800002B68D0794B01221A60FFF741FE05463A
:100A7800754B1B6813F0020F54D1FFF739FE401B6A
:100A88000228F5D903207FE16F4A136843F48033C5
:100A98001360B5E76C4B1A6842F480221A601A6832
:100AA80042F480321A60ABE7FFF722FE0546664B38
:100AB8001B6813F4003FC3D0FFF71AFE401B6428DD
:100AC800F5D9032060E1604B5B6813F4800FC6D151
:100AD8005D4B1B6813F0020F03D0E368012B40F055
:100AE8005081594A136823F0F803216943EAC10386
:100AF8001360236813F0080F42D063696BB3534B3C
:100B08000122C3F8802EFFF7F3FD05464E4B5B6FBD
:100B180013F0020F34D1FFF7EBFD401B0228F5D983
:100B2800032031E1484A136823F0F803216943EAB6
:100B3800C1031360DDE7454B00221A60FFF7D8FDBB
:100B48000546414B1B6813F0020FD2D0FFF7D0FDCA
:100B5800401B0228F5D9032016E13C4B0022C3F8BC
:100B6800802EFFF7C5FD0546374B5B6F13F0020F6C
:100B780006D0FFF7BDFD401B0228F5D9032003E18D
:100B8800236813F0040F77D02F4B1B6C13F0805F92
:100B980033D1002301932C4B1A6C42F080521A6413
:100BA8001B6C03F080530193019B0125284B1B68A4
:100BB80013F4807F23D0A368012B34D0052B38D0C1
:100BC800214B1A6F22F001021A671A6F22F00402F1
:100BD8001A67A368002B3DD0FFF78AFD06461A4B1B
:100BE8001B6F13F0020F46D1FFF782FD801B41F205
:100BF80088339842F3D90320C6E00025D6E7144A83
:100C0800136843F480731360FFF772FD0646104BB8
:100C18001B6813F4807FCED1FFF76AFD801B022882
:100C2800F5D90320B0E0084A136F43F001031367B6
:100C3800CFE7054B1A6F42F004021A671A6F42F0A9
:100C480001021A67C5E700BF0038024000004742AA
:100C580000700040FFF74CFD0646524B1B6F13F027
:100C6800020F08D0FFF744FD801B41F288339842F9
:100C7800F3D9032088E0EDB9A369002B00F0838045
:100C8800484A926802F00C02082A51D0022B17D069
:100C9800454B00221A66FFF72BFD0446414B1B68A3
:100CA80013F0007F42D0FFF723FD001B0228F5D97F
:100CB800032069E03B4A136C23F080531364DBE79D
:100CC800394B00221A66FFF713FD0546354B1B68A2
:100CD80013F0007F06D0FFF70BFD401B0228F5D963
:100CE800032051E0E369226A1343626A43EA8213EC
:100CF800A26A5208013A43EA0243E26A43EA0263FB
:100D0800284A5360284B01221A66FFF7F1FC044673
:100D1800244B1B6813F0007F06D1FFF7E9FC001B8A
:100D28000228F5D903202FE000202DE000202BE039
:100D3800012B2BD01B4B5B6803F48001E2699142C5
:100D480026D103F03F02216A8A4223D1616A47F61D
:100D5800C0721A40B2EB811F1ED103F44031A26A5F
:100D68005208013AB1EB024F18D103F07063E26AFE
:100D7800B3EB026F14D1002006E001207047012078
:100D880002E0012000E0002002B070BD0120FBE776
:100D98000120F9E70120F7E70120F5E70120F3E753
:100DA8000120F1E7003802400000474208B5264B11
:100DB8009B6803F00C03042B41D0082B41D1224B34
:100DC8005A6802F03F025B6813F4800F12D01E4B82
:100DD8005968C1F388111D480023A1FB0001FFF7E2
:100DE800D7F9194B5B68C3F3014301335B00B0FBD0
:100DF800F3F008BD144B5868C0F388104FEA401C44
:100E0800BCEB000C6EEB0E0E4FEA8E1343EA9C63AC
:100E18004FEA8C11B1EB0C0163EB0E03DB0043EAE4
:100E28005173C90011EB000C43F100039902002330
:100E38004FEA8C2041EA9C51FFF7AAF9D1E7034811
:100E4800D7E70348D5E700BF0038024040787D0166
:100E58000024F400002800F09B8070B50D4604467D
:100E68004F4B1B6803F007038B4208D2CBB24C4AA6
:100E78001370136803F007038B4240F08B802368DC
:100E880013F0020F17D013F0040F04D0454A9368EB
:100E980043F4E0539360236813F0080F04D0414AE9
:100EA800936843F4604393603E4A936823F0F003E9
:100EB800A1680B439360236813F0010F32D0636875
:100EC800012B21D09A1E012A25D9364A126812F020
:100ED800020F61D033498A6822F0030213438B6002
:100EE800FFF706FC06462F4B9B6803F00C0362686D
:100EF800B3EB820F16D0FFF7FBFB801B41F2883360
:100F08009842F0D9032042E0264A126812F4003FC2
:100F1800E0D101203BE0234A126812F0007FD9D1CA
:100F2800012034E01E4B1B6803F00703AB4207D9CE
:100F3800EAB21B4B1A701B6803F00703AB422DD1B2
:100F4800236813F0040F06D0164A936823F4E0537D
:100F5800E1680B439360236813F0080F07D0114A28
:100F6800936823F46043216943EAC1039360FFF760
:100F78001DFF0C4B9B68C3F303130B4AD35CD8408B
:100F88000A4B18600A4B1868FFF766FB002070BD13
:100F9800012070470120FAE70120F8E70120F6E771
:100FA800003C0240003802404014000800000020C5
:100FB800080000200368294A90420ED0B0F1804F03
:100FC8000BD0A2F57C42904207D002F58062904295
:100FD80003D002F58062904203D123F070034A687F
:100FE80013431E4A90421AD0B0F1804F17D0A2F591
:100FF8007C42904213D002F5806290420FD002F5F5
:10100800806290420BD002F59A32904207D002F5E6
:101018008062904203D002F58062904203D123F4AB
:101028004073CA68134323F080034A69134303607B
:101038008B68C3620B688362084B98420AD001230D
:101048004361036913F0010F03D0036923F001031F
:10105800036170470B690363F1E700BF00000140BB
:1010680040B310B5044690F83D30F3B1022384F83C
:101078003D30214651F8040BFFF79CFF012384F80B
:10108800463084F83E3084F83F3084F8403084F8A5
:10109800413084F8423084F8433084F8443084F88E
:1010A800453084F83D30002010BD80F83C30FFF713
:1010B800BBFADBE701207047DFF834D0FFF792FA7C
:1010C8000C480D490D4A002302E0D458C45004339B
:1010D800C4188C42F9D30A4A0A4C002301E0136071
:1010E8000432A242FBD300F019F8FFF741FA704727
:1010F80000000220000000200C00002060140008FE
:101108000C00002080000020FEE7024403469342C2
:1011180000D1704703F8011BF9E7000070B50D4DC9
:101128000D4C641BA4100026A64209D10B4D0C4C93
:1011380000F076F9641BA4100026A64205D170BD04
:1011480055F8043B98470136EEE755F8043B9847B5
:101158000136F2E75814000858140008581400081B
:101168005C1400082DE9F047089D0E4604460F461A
:10117800002B4AD194468C45B2FA82F260D942B12A
:10118800C2F12003974020FA03F30CFA02FC1F4334
:1011980094404FEA1C4E1FFA8CF6B7FBFEF1230C65
:1011A8000EFB117743EA074301FB06F098420AD980
:1011B8001CEB030301F1FF3780F01581984240F2E0
:1011C8001281023963441B1AA4B2B3FBFEF00EFB72
:1011D800103344EA034400FB06F6A6420AD91CEB86
:1011E800040400F1FF3380F00081A64240F2FD8044
:1011F8006444023840EA0140A41B00211DB1D440D8
:101208000023C5E90043BDE8F0878B4205D90DB13D
:10121800C5E9000100210846F5E7B3FA83F1002982
:1012280046D1B34202D3824200F2F580841A66EBBB
:10123800030201201746002DE5D0C5E90047E2E783
:10124800002A40F09380A1EB0C034FEA1C471FFAD9
:101258008CFE0121B3FBF7F607FB1630230C43EA9B
:1012680000430EFB06F0984208D91CEB030306F175
:10127800FF3802D2984200F2D08046461B1AA4B228
:10128800B3FBF7F007FB103344EA03440EFB00FE00
:10129800A64508D91CEB040400F1FF3302D2A64589
:1012A80000F2B6801846A4EB0E0440EA0640A5E713
:1012B800C1F120078B4022FA07FC4CEA030C06FA1E
:1012C80001FE20FA07F426FA07F344EA0E0400FAAE
:1012D80001F84FEA1C404FEA1449B3FBF0FE1FFA2D
:1012E8008CF600FB1E3349EA03430EFB06F99945C9
:1012F80002FA01F20BD91CEB03030EF1FF3A80F05E
:101308008580994540F28280AEF1020E6344A3EBDA
:101318000909A4B2B9FBF0F300FB139944EA0944A4
:1013280003FB06F6A64208D91CEB040403F1FF30C0
:1013380068D2A64266D9023B644443EA0E40A41B25
:10134800A0FB02E6B4427346B14652D34FD05DB11A
:10135800B8EB030264EB090404FA07F722FA01F375
:101368001F43CC40C5E9007400214CE7C2F12001BD
:1013780020FA01F30CFA02FC26FA01F196403343F5
:101388004FEA1C471FFA8CFEB1FBF7F007FB10165B
:10139800190C41EA064100FB0EF68E4204FA02F4EB
:1013A80008D91CEB010100F1FF382DD28E422BD950
:1013B80002386144891B9BB2B1FBF7F607FB161193
:1013C80043EA014306FB0EF1994208D91CEB0303DB
:1013D80006F1FF3814D2994212D9023E63445B1ACF
:1013E80046EA004136E73946EDE6184602E7F04599
:1013F800ADD2BEEB020366EB0C060138B146A6E798
:101408004646ECE7034698E74046D3E7D6467EE7EC
:101418006444023847E708460DE7023E63442DE777
:10142800F8B500BFF8BC08BC9E467047F8B500BFC9
:08143800F8BC08BC9E46704799
:101440000000000000000000010203040607080974
:081450001CFDFF7F01000000FC
:04145800F101000896
:04145C00CD010008B6
:0C1460000024F400010000001000000057
:04000005080010C11E
:00000001FF
