:020000040800F2
:10000000000002206D110008590400085B0400087C
:100010005D0400085F04000861040008000000009F
:100020000000000000000000000000006304000861
:100030006504000800000000670400086904000867
:10004000BD110008BD110008BD110008BD11000858
:10005000BD110008BD110008BD110008BD11000848
:10006000BD110008BD110008BD110008BD11000838
:10007000BD110008BD110008BD110008BD11000828
:10008000BD110008BD110008BD11000800000000EE
:10009000000000000000000000000000BD1100088A
:1000A000BD110008BD11000871040008BD11000851
:1000B000BD110008BD110008BD110008BD110008E8
:1000C000BD110008BD110008BD110008BD110008D8
:1000D000BD110008BD110008BD110008000000009E
:1000E000BD110008BD110008BD110008000000008E
:1000F000000000000000000000000000BD1100082A
:1001000000000000BD110008BD110008BD1100086D
:1001100000000000000000000000000000000000DF
:10012000BD110008BD110008BD110008BD11000877
:10013000BD110008000000000000000000000000E9
:10014000000000000000000000000000BD110008D9
:10015000BD110008BD110008BD110008BD11000847
:10016000BD110008BD1100080000000000000000E3
:10017000000000000000000000000000000000007F
:1001800000000000BD110008000000000000000099
:08019000BD110008BD110008BB
:1001980053B94AB9002908BF00281CBF4FF0FF31E6
:1001A8004FF0FF3000F00CB8ADF1080C6DE904CE4B
:1001B80001F02EF8DDF804E0DDE9022304B0704711
:1001C800704700BF10B5054C237833B9044B13B101
:1001D8000448AFF300800123237010BD0C000020F9
:1001E80000000000D414000808B5034B1BB10349F4
:1001F8000348AFF3008008BD000000001000002095
:10020800D414000870B588B00024039404940594AD
:100218000694079400941C4B1A6B42F004021A636C
:100228001A6B02F004020092009A01941A6B42F0D1
:1002380080021A631A6B02F080020192019A0294FA
:100248001A6B42F001021A631B6B03F0010302935D
:10025800029B0E4E01224FF40051304600F007FB7E
:100268004FF400530393012504950594069403A9BC
:10027800304600F011FA03950494059503A9044843
:1002880000F00AFA08B070BD0038024000080240C9
:10029800000002400028FDD17047000090B908B561
:1002A80049B101224FF4005100F1804000F50230BD
:1002B80000F0DDFA08BD00224FF40051024800F0BA
:1002C800D6FAF7E7704700BF0008024008B10220DD
:1002D800704708B54FF4005100F1804000F5023036
:1002E80000F0BEFA012806D04FF40051024800F091
:1002F800B7FA00B1022008BD0008024000B17047FB
:1003080008B5FFF7E3FF012804D00020FFF7DEFF60
:1003180028B108BD00210846FFF7C0FFF9E7012111
:10032800FFF7BCFFF5E70000044B834200D070479D
:10033800034A136801331360F9E700BF2C0000205B
:100348002800002072B6FEE700B595B030220021E3
:1003580008A800F030FF0023039304930593069345
:10036800079301931F4A116C41F080511164126C7C
:1003780002F080520192019A02931B4B1A6842F4D0
:1003880040421A601B6803F440430293029B012316
:1003980008934FF48033099302230E934FF480029D
:1003A8000F920C221092602211921293042313933D
:1003B80008A800F063FA88B90F2303930223049373
:1003C800002305934FF4805206920793032103A854
:1003D80000F0A4FC20B915B05DF804FBFFF7B2FFEC
:1003E800FFF7B0FF003802400070004008B500F089
:1003F800ABF8FFF7A9FFFFF705FF00F047F805483E
:1004080000F03CFD0020FFF779FF4FF4FA70FFF78A
:1004180041FFF7E72C00002082B0002100910B4B30
:100428005A6C42F480425A645A6C02F48042009238
:10043800009A01911A6C42F080521A641B6C03F006
:1004480080530193019B02B0704700BF00380240FF
:10045800FEE7FEE7FEE7FEE7FEE7704770477047F6
:1004680008B500F08BF808BD08B5024800F046FD55
:1004780008BD00BF2C000020034AD2F8883043F49E
:100488007003C2F88830704700ED00E008B50948ED
:10049800094B0360632343600023836040F2E73223
:1004A800C2600361836100F02FFE00B908BDFFF749
:1004B80049FFFBE72C0000200048014002680E4B72
:1004C8009A4200D0704700B583B00021019103F52E
:1004D80070435A6C42F480225A645B6C03F48023A4
:1004E8000193019B0A461A2000F0AEF81A2000F08A
:1004F800BBF803B05DF804FB0048014010B50446A2
:100508000E4B1A784FF47A73B3FBF2F30C4A106867
:10051800B0FBF3F000F0ACF868B90F2C01D901205A
:100528000AE0002221464FF0FF3000F08DF8054B1D
:100538001C60002000E0012010BD00BF0400002066
:10054800000000200800002008B50B4B1A6842F490
:1005580000721A601A6842F480621A601A6842F4DB
:1005680080721A60032000F05DF80F20FFF7C6FFC5
:10057800FFF752FF002008BD003C0240034A116803
:10058800034B1B780B441360704700BF74000020B6
:1005980004000020014B1868704700BF7400002059
:1005A800002807DB00F01F02400901239340024A9C
:1005B80042F82030704700BF00E100E0002808DB67
:1005C8000901C9B200F1604000F5614080F80013EC
:1005D800704700F00F000901C9B2014B1954704768
:1005E80014ED00E000B500F00700C0F1070CBCF105
:1005F800040F28BF4FF0040C031D062B0FD9C31E90
:100608004FF0FF3E0EFA0CF021EA000199400EFA75
:1006180003FE22EA0E0241EA02005DF804FB002311
:10062800EEE70000074AD36823F4E0631B041B0CC1
:10063800000200F4E060034343F0BF6343F4003377
:10064800D360704700ED00E010B50446054BD8684C
:10065800C0F30220FFF7C6FF01462046FFF7AEFFB2
:1006680010BD00BF00ED00E008B5FFF799FF08BD19
:100678000138B0F1807F0BD24FF0E0235861054A72
:10068800F02182F823100020986107221A61704730
:100698000120704700ED00E000230F2B00F2D78007
:1006A80070B582B065E085684FEA430E032404FA0A
:1006B8000EF425EA0405CC6804FA0EF42C43846091
:1006C800446824EA02044A68C2F300129A402243AA
:1006D80042605CE0DC08083450F8242003F0070589
:1006E800AD004FF00F0E0EFA05FE22EA0E0E0A6953
:1006F800AA4042EA0E0240F824205CE0042200E00E
:10070800002202FA0EF22A430234514D45F8242001
:10071800504A94686FEA0C0224EA0C054E6816F4F5
:10072800801F01D04CEA04054A4CA560E46802EA3F
:1007380004054E6816F4001F01D04CEA0405454C28
:10074800E560646802EA04054E6816F4003F01D0CB
:100758004CEA04053F4C6560246822404D6815F456
:10076800803F01D04CEA04023A4C226001330F2B3F
:100778006BD801229A400C6804EA020C32EA04049D
:10078800F4D14C6804F00304013C012C8BD94A686D
:1007980002F00302032A09D0C4685D000322AA40BC
:1007A80024EA02048A68AA402243C2604A6802F026
:1007B8000302022A8ED004684FEA430E032202FA8B
:1007C8000EF224EA02044A6802F0030202FA0EF268
:1007D800224302604A6812F4403FC7D000220192C7
:1007E8001D4A546C44F480445464526C02F48042B0
:1007F8000192019A9C08A51C154A52F8255003F04D
:10080800030E4FEA8E0E0F2202FA0EF225EA0205B7
:10081800124A90423FF474AF02F5806290420ED0C3
:1008280002F5806290420CD002F5806290420AD0B4
:1008380002F5806290423FF461AF072261E701222E
:100848005FE702225DE703225BE702B070BD7047F5
:1008580000380140003C01400038024000000240DE
:100868000369194201D001207047002070470AB17E
:10087800816170470904816170470000002800F019
:10088800E08170B582B00446036813F0010F3BD0D5
:100898009F4B9B6803F00C03042B2CD09C4B9B684C
:1008A80003F00C03082B21D06368B3F5803F4FD0C9
:1008B800B3F5A02F52D0964B1A6822F480321A60F2
:1008C8001A6822F480221A606368002B50D0FFF760
:1008D80061FE05468E4B1B6813F4003F14D1FFF7E9
:1008E80059FE401B6428F5D90320B1E1884B5B68A9
:1008F80013F4800FD8D0864B1B6813F4003F03D045
:100908006368002B00F09F81236813F0020F54D016
:100918007F4B9B6813F00C0F3ED07D4B9B6803F018
:100928000C03082B33D0E368002B68D0794B0122E5
:100938001A60FFF72FFE0546754B1B6813F0020F70
:1009480054D1FFF727FE401B0228F5D903207FE189
:100958006F4A136843F480331360B5E76C4B1A6829
:1009680042F480221A601A6842F480321A60ABE7B7
:10097800FFF710FE0546664B1B6813F4003FC3D013
:10098800FFF708FE401B6428F5D9032060E1604B9F
:100998005B6813F4800FC6D15D4B1B6813F0020F20
:1009A80003D0E368012B40F05081594A136823F0C3
:1009B800F803216943EAC1031360236813F0080FA1
:1009C80042D063696BB3534B0122C3F8802EFFF703
:1009D800E1FD05464E4B5B6F13F0020F34D1FFF774
:1009E800D9FD401B0228F5D9032031E1484A136894
:1009F80023F0F803216943EAC1031360DDE7454B9F
:100A080000221A60FFF7C6FD0546414B1B6813F02C
:100A1800020FD2D0FFF7BEFD401B0228F5D90320F4
:100A280016E13C4B0022C3F8802EFFF7B3FD0546C4
:100A3800374B5B6F13F0020F06D0FFF7ABFD401B7F
:100A48000228F5D9032003E1236813F0040F77D0B7
:100A58002F4B1B6C13F0805F33D1002301932C4B79
:100A68001A6C42F080521A641B6C03F08053019395
:100A7800019B0125284B1B6813F4807F23D0A368B2
:100A8800012B34D0052B38D0214B1A6F22F00102EC
:100A98001A671A6F22F004021A67A368002B3DD068
:100AA800FFF778FD06461A4B1B6F13F0020F46D16D
:100AB800FFF770FD801B41F288339842F3D9032079
:100AC800C6E00025D6E7144A136843F48073136020
:100AD800FFF760FD0646104B1B6813F4807FCED1EC
:100AE800FFF758FD801B0228F5D90320B0E0084A1B
:100AF800136F43F001031367CFE7054B1A6F42F0FA
:100B080004021A671A6F42F001021A67C5E700BFAC
:100B1800003802400000474200700040FFF73AFDED
:100B28000646524B1B6F13F0020F08D0FFF732FD39
:100B3800801B41F288339842F3D9032088E0EDB94D
:100B4800A369002B00F08380484A926802F00C02E7
:100B5800082A51D0022B17D0454B00221A66FFF7FE
:100B680019FD0446414B1B6813F0007F42D0FFF784
:100B780011FD001B0228F5D9032069E03B4A136CDC
:100B880023F080531364DBE7394B00221A66FFF722
:100B980001FD0546354B1B6813F0007F06D0FFF7B3
:100BA800F9FC401B0228F5D9032051E0E369226AC9
:100BB8001343626A43EA8213A26A5208013A43EA7B
:100BC8000243E26A43EA0263284A5360284B01223F
:100BD8001A66FFF7DFFC0446244B1B6813F0007FFE
:100BE80006D1FFF7D7FC001B0228F5D903202FE018
:100BF80000202DE000202BE0012B2BD01B4B5B6845
:100C080003F48001E269914226D103F03F02216A90
:100C18008A4223D1616A47F6C0721A40B2EB811F3B
:100C28001ED103F44031A26A5208013AB1EB024FD7
:100C380018D103F07063E26AB3EB026F14D100209D
:100C480006E001207047012002E0012000E00020BA
:100C580002B070BD0120FBE70120F9E70120F7E7AA
:100C68000120F5E70120F3E70120F1E70038024011
:100C78000000474208B5264B9B6803F00C03042B81
:100C880041D0082B41D1224B5A6802F03F025B68E1
:100C980013F4800F12D01E4B5968C1F388111D48F8
:100CA8000023A1FB0001FFF773FA194B5B68C3F33C
:100CB800014301335B00B0FBF3F008BD144B5868E7
:100CC800C0F388104FEA401CBCEB000C6EEB0E0E14
:100CD8004FEA8E1343EA9C634FEA8C11B1EB0C0187
:100CE80063EB0E03DB0043EA5173C90011EB000C00
:100CF80043F10003990200234FEA8C2041EA9C51FA
:100D0800FFF746FAD1E70348D7E70348D5E700BF1E
:100D18000038024040787D010024F400002800F0EB
:100D28009B8070B50D4604464F4B1B6803F00703C4
:100D38008B4208D2CBB24C4A1370136803F00703F6
:100D48008B4240F08B80236813F0020F17D013F00A
:100D5800040F04D0454A936843F4E0539360236832
:100D680013F0080F04D0414A936843F4604393603A
:100D78003E4A936823F0F003A1680B43936023680D
:100D880013F0010F32D06368012B21D09A1E012A7B
:100D980025D9364A126812F0020F61D033498A68A1
:100DA80022F0030213438B60FFF7F4FB06462F4B38
:100DB8009B6803F00C036268B3EB820F16D0FFF751
:100DC800E9FB801B41F288339842F0D9032042E0C6
:100DD800264A126812F4003FE0D101203BE0234A82
:100DE800126812F0007FD9D1012034E01E4B1B6835
:100DF80003F00703AB4207D9EAB21B4B1A701B6812
:100E080003F00703AB422DD1236813F0040F06D07B
:100E1800164A936823F4E053E1680B439360236810
:100E280013F0080F07D0114A936823F4604321692F
:100E380043EAC1039360FFF71DFF0C4B9B68C3F3A4
:100E480003130B4AD35CD8400A4B18600A4B186846
:100E5800FFF754FB002070BD012070470120FAE71E
:100E68000120F8E70120F6E7003C02400038024084
:100E7800EC140008000000200800002090F83D3025
:100E8800DBB2012B2FD1022380F83D300268D368F2
:100E980043F00103D3600368154A934218D0B3F1B5
:100EA800804F15D0A2F57C42934211D002F58062A2
:100EB80093420DD002F58062934209D002F59A322E
:100EC800934205D01A6842F001021A600020704768
:100ED8009A6802F00702062A07D01A6842F001024F
:100EE8001A6000207047012070470020704700BF3B
:100EF80000000140704770477047704770B504465E
:100F08000368DE681D6915F0020F10D016F0020F95
:100F18000DD06FF002021A610123037703689B6901
:100F280013F0030F5ED0FFF7E6FF0023237715F0D9
:100F3800040F12D016F0040F0FD023686FF00402CC
:100F48001A610223237723689B6913F4407F4FD0EB
:100F58002046FFF7D0FF0023237715F0080F12D0A3
:100F680016F0080F0FD023686FF008021A610423E7
:100F780023772368DB6913F0030F40D02046FFF77F
:100F8800BAFF0023237715F0100F12D016F0100FB8
:100F98000FD023686FF010021A61082323772368A3
:100FA800DB6913F4407F31D02046FFF7A4FF00230C
:100FB800237715F0010F02D016F0010F2DD115F08F
:100FC800800F02D016F0800F2FD115F0400F02D0FD
:100FD80016F0400F31D115F0200F02D016F0200F77
:100FE80033D170BDFFF786FF2046FFF785FF9CE7EA
:100FF8002046FFF77FFF2046FFF77EFFABE720463E
:10100800FFF778FF2046FFF777FFBAE72046FFF79C
:1010180071FF2046FFF770FFC9E723686FF00102F0
:101028001A612046FFF780F9C9E723686FF080024C
:101038001A61204600F095F8C7E723686FF0400270
:101048001A612046FFF759FFC5E723686FF02002B1
:101058001A61204600F084F8C3E700000368294AB3
:1010680090420ED0B0F1804F0BD0A2F57C42904256
:1010780007D002F58062904203D002F58062904268
:1010880003D123F070034A6813431E4A90421AD0D2
:10109800B0F1804F17D0A2F57C42904213D002F5F0
:1010A800806290420FD002F5806290420BD002F528
:1010B8009A32904207D002F58062904203D002F53E
:1010C8008062904203D123F44073CA68134323F02B
:1010D80080034A69134303608B68C3620B688362A9
:1010E800084B98420AD001234361036913F0010FAA
:1010F80003D0036923F00103036170470B6903639D
:10110800F1E700BF0000014040B310B5044690F875
:101118003D30F3B1022384F83D30214651F8040BE9
:10112800FFF79CFF012384F8463084F83E3084F8AA
:101138003F3084F8403084F8413084F8423084F8F5
:10114800433084F8443084F8453084F83D3000203A
:1011580010BD80F83C30FFF7B1F9DBE7012070479C
:1011680070477047DFF834D0FFF786F90C480D490F
:101178000D4A002302E0D458C4500433C4188C42EA
:10118800F9D30A4A0A4C002301E013600432A24250
:10119800FBD300F019F8FFF729F970470000022087
:1011A800000000200C0000200C1500080C00002096
:1011B80078000020FEE702440346934200D17047BE
:1011C80003F8011BF9E7000070B50D4D0D4C641BC9
:1011D800A4100026A64209D10B4D0C4C00F076F95C
:1011E800641BA4100026A64205D170BD55F8043B27
:1011F80098470136EEE755F8043B98470136F2E781
:10120800041500080415000804150008081500084E
:101218002DE9F047089D0E4604460F46002B4AD19B
:1012280094468C45B2FA82F260D942B1C2F12003E9
:10123800974020FA03F30CFA02FC1F4394404FEA4C
:101248001C4E1FFA8CF6B7FBFEF1230C0EFB117730
:1012580043EA074301FB06F098420AD91CEB030353
:1012680001F1FF3780F01581984240F2128102396E
:1012780063441B1AA4B2B3FBFEF00EFB103344EA1E
:10128800034400FB06F6A6420AD91CEB040400F14D
:10129800FF3380F00081A64240F2FD8064440238AA
:1012A80040EA0140A41B00211DB1D4400023C5E938
:1012B8000043BDE8F0878B4205D90DB1C5E90001AF
:1012C80000210846F5E7B3FA83F1002946D1B34275
:1012D80002D3824200F2F580841A66EB03020120F1
:1012E8001746002DE5D0C5E90047E2E7002A40F09F
:1012F8009380A1EB0C034FEA1C471FFA8CFE0121D7
:10130800B3FBF7F607FB1630230C43EA00430EFB4A
:1013180006F0984208D91CEB030306F1FF3802D205
:10132800984200F2D08046461B1AA4B2B3FBF7F0ED
:1013380007FB103344EA03440EFB00FEA64508D918
:101348001CEB040400F1FF3302D2A64500F2B6807C
:101358001846A4EB0E0440EA0640A5E7C1F12007B1
:101368008B4022FA07FC4CEA030C06FA01FE20FA2D
:1013780007F426FA07F344EA0E0400FA01F84FEAE4
:101388001C404FEA1449B3FBF0FE1FFA8CF600FB31
:101398001E3349EA03430EFB06F9994502FA01F2A6
:1013A8000BD91CEB03030EF1FF3A80F085809945B9
:1013B80040F28280AEF1020E6344A3EB0909A4B2A5
:1013C800B9FBF0F300FB139944EA094403FB06F662
:1013D800A64208D91CEB040403F1FF3068D2A642E8
:1013E80066D9023B644443EA0E40A41BA0FB02E614
:1013F800B4427346B14652D34FD05DB1B8EB030245
:1014080064EB090404FA07F722FA01F31F43CC40FE
:10141800C5E9007400214CE7C2F1200120FA01F36C
:101428000CFA02FC26FA01F1964033434FEA1C47B6
:101438001FFA8CFEB1FBF7F007FB1016190C41EAF6
:10144800064100FB0EF68E4204FA02F408D91CEBA2
:10145800010100F1FF382DD28E422BD902386144A8
:10146800891B9BB2B1FBF7F607FB161143EA014350
:1014780006FB0EF1994208D91CEB030306F1FF386D
:1014880014D2994212D9023E63445B1A46EA0041DB
:1014980036E73946EDE6184602E7F045ADD2BEEB31
:1014A800020366EB0C060138B146A6E74646ECE7B0
:1014B800034698E74046D3E7D6467EE764440238B9
:1014C80047E708460DE7023E63442DE7F8B500BF3D
:1014D800F8BC08BC9E467047F8B500BFF8BC08BC0D
:0414E8009E46704765
:1014EC0000000000000000000102030406070809C8
:0814FC001CFDFF7F0100000050
:04150400F1010008E9
:04150800CD01000809
:0C150C000024F4000100000010000000AA
:040000050800116D71
:00000001FF
